{
  "contractName": "notas",
  "abi": [
    {
      "inputs": [],
      "stateMutability": "nonpayable",
      "type": "constructor"
    },
    {
      "anonymous": false,
      "inputs": [
        {
          "indexed": false,
          "internalType": "bytes32",
          "name": "",
          "type": "bytes32"
        }
      ],
      "name": "alumno_evaluado",
      "type": "event"
    },
    {
      "anonymous": false,
      "inputs": [
        {
          "indexed": false,
          "internalType": "string",
          "name": "",
          "type": "string"
        }
      ],
      "name": "evento_revision",
      "type": "event"
    },
    {
      "inputs": [],
      "name": "profesor",
      "outputs": [
        {
          "internalType": "address",
          "name": "",
          "type": "address"
        }
      ],
      "stateMutability": "view",
      "type": "function",
      "constant": true
    },
    {
      "inputs": [
        {
          "internalType": "string",
          "name": "_asignatura",
          "type": "string"
        },
        {
          "internalType": "string",
          "name": "_idAlumno",
          "type": "string"
        },
        {
          "internalType": "uint256",
          "name": "_nota",
          "type": "uint256"
        }
      ],
      "name": "Evaluar",
      "outputs": [],
      "stateMutability": "nonpayable",
      "type": "function"
    },
    {
      "inputs": [
        {
          "internalType": "string",
          "name": "_asignatura",
          "type": "string"
        },
        {
          "internalType": "string",
          "name": "_idAlumno",
          "type": "string"
        }
      ],
      "name": "VerNotas",
      "outputs": [
        {
          "internalType": "uint256",
          "name": "",
          "type": "uint256"
        }
      ],
      "stateMutability": "view",
      "type": "function",
      "constant": true
    },
    {
      "inputs": [
        {
          "internalType": "string",
          "name": "_asignatura",
          "type": "string"
        },
        {
          "internalType": "string",
          "name": "_idAlumno",
          "type": "string"
        }
      ],
      "name": "Revision",
      "outputs": [],
      "stateMutability": "nonpayable",
      "type": "function"
    },
    {
      "inputs": [
        {
          "internalType": "string",
          "name": "_asignatura",
          "type": "string"
        }
      ],
      "name": "VerRevisiones",
      "outputs": [
        {
          "internalType": "string[]",
          "name": "",
          "type": "string[]"
        }
      ],
      "stateMutability": "view",
      "type": "function",
      "constant": true
    }
  ],
  "bytecode": "0x608060405234801561000f575f80fd5b50335f806101000a81548173ffffffffffffffffffffffffffffffffffffffff021916908373ffffffffffffffffffffffffffffffffffffffff160217905550610dca8061005c5f395ff3fe608060405234801561000f575f80fd5b5060043610610055575f3560e01c80633036222414610059578063593cbcf01461008957806395bb498f146100a5578063df096576146100d5578063df3bba9f146100f3575b5f80fd5b610073600480360381019061006e91906105e4565b61010f565b6040516100809190610760565b60405180910390f35b6100a3600480360381019061009e91906107b3565b610290565b005b6100bf60048036038101906100ba919061083b565b61039e565b6040516100cc91906108c0565b60405180910390f35b6100dd6103eb565b6040516100ea9190610918565b60405180910390f35b61010d6004803603810190610108919061083b565b61040e565b005b6060335f8054906101000a900473ffffffffffffffffffffffffffffffffffffffff1673ffffffffffffffffffffffffffffffffffffffff168173ffffffffffffffffffffffffffffffffffffffff161461019f576040517f08c379a0000000000000000000000000000000000000000000000000000000008152600401610196906109b1565b60405180910390fd5b6002836040516101af9190610a09565b9081526020016040518091039020805480602002602001604051908101604052809291908181526020015f905b82821015610284578382905f5260205f200180546101f990610a4c565b80601f016020809104026020016040519081016040528092919081815260200182805461022590610a4c565b80156102705780601f1061024757610100808354040283529160200191610270565b820191905f5260205f20905b81548152906001019060200180831161025357829003601f168201915b5050505050815260200190600101906101dc565b50505050915050919050565b335f8054906101000a900473ffffffffffffffffffffffffffffffffffffffff1673ffffffffffffffffffffffffffffffffffffffff168173ffffffffffffffffffffffffffffffffffffffff161461031e576040517f08c379a0000000000000000000000000000000000000000000000000000000008152600401610315906109b1565b60405180910390fd5b5f8484604051602001610332929190610a7c565b6040516020818303038152906040528051906020012090508260015f8381526020019081526020015f20819055507f9129eeeb684507aca017f10030b70e5bf86d129f417fcc5840348a957eb12cee8160405161038f9190610ab7565b60405180910390a15050505050565b5f8083836040516020016103b3929190610a7c565b6040516020818303038152906040528051906020012090505f60015f8381526020019081526020015f20549050809250505092915050565b5f8054906101000a900473ffffffffffffffffffffffffffffffffffffffff1681565b60028260405161041e9190610a09565b908152602001604051809103902081908060018154018082558091505060019003905f5260205f20015f90919091909150908161045b9190610c6d565b507fafd73f39162aa4c0421f362f3a3d26f44b23c73253256cfc1c68794b0973e0a08160405161048b9190610d74565b60405180910390a15050565b5f604051905090565b5f80fd5b5f80fd5b5f80fd5b5f80fd5b5f601f19601f8301169050919050565b7f4e487b71000000000000000000000000000000000000000000000000000000005f52604160045260245ffd5b6104f6826104b0565b810181811067ffffffffffffffff82111715610515576105146104c0565b5b80604052505050565b5f610527610497565b905061053382826104ed565b919050565b5f67ffffffffffffffff821115610552576105516104c0565b5b61055b826104b0565b9050602081019050919050565b828183375f83830152505050565b5f61058861058384610538565b61051e565b9050828152602081018484840111156105a4576105a36104ac565b5b6105af848285610568565b509392505050565b5f82601f8301126105cb576105ca6104a8565b5b81356105db848260208601610576565b91505092915050565b5f602082840312156105f9576105f86104a0565b5b5f82013567ffffffffffffffff811115610616576106156104a4565b5b610622848285016105b7565b91505092915050565b5f81519050919050565b5f82825260208201905092915050565b5f819050602082019050919050565b5f81519050919050565b5f82825260208201905092915050565b5f5b8381101561068b578082015181840152602081019050610670565b5f8484015250505050565b5f6106a082610654565b6106aa818561065e565b93506106ba81856020860161066e565b6106c3816104b0565b840191505092915050565b5f6106d98383610696565b905092915050565b5f602082019050919050565b5f6106f78261062b565b6107018185610635565b93508360208202850161071385610645565b805f5b8581101561074e578484038952815161072f85826106ce565b945061073a836106e1565b925060208a01995050600181019050610716565b50829750879550505050505092915050565b5f6020820190508181035f83015261077881846106ed565b905092915050565b5f819050919050565b61079281610780565b811461079c575f80fd5b50565b5f813590506107ad81610789565b92915050565b5f805f606084860312156107ca576107c96104a0565b5b5f84013567ffffffffffffffff8111156107e7576107e66104a4565b5b6107f3868287016105b7565b935050602084013567ffffffffffffffff811115610814576108136104a4565b5b610820868287016105b7565b92505060406108318682870161079f565b9150509250925092565b5f8060408385031215610851576108506104a0565b5b5f83013567ffffffffffffffff81111561086e5761086d6104a4565b5b61087a858286016105b7565b925050602083013567ffffffffffffffff81111561089b5761089a6104a4565b5b6108a7858286016105b7565b9150509250929050565b6108ba81610780565b82525050565b5f6020820190506108d35f8301846108b1565b92915050565b5f73ffffffffffffffffffffffffffffffffffffffff82169050919050565b5f610902826108d9565b9050919050565b610912816108f8565b82525050565b5f60208201905061092b5f830184610909565b92915050565b5f82825260208201905092915050565b7f4e6f207469656e6573207065726d69736f73207061726120656a6563757461725f8201527f20657374612066756e63696f6e2e000000000000000000000000000000000000602082015250565b5f61099b602e83610931565b91506109a682610941565b604082019050919050565b5f6020820190508181035f8301526109c88161098f565b9050919050565b5f81905092915050565b5f6109e382610654565b6109ed81856109cf565b93506109fd81856020860161066e565b80840191505092915050565b5f610a1482846109d9565b915081905092915050565b7f4e487b71000000000000000000000000000000000000000000000000000000005f52602260045260245ffd5b5f6002820490506001821680610a6357607f821691505b602082108103610a7657610a75610a1f565b5b50919050565b5f610a8782856109d9565b9150610a9382846109d9565b91508190509392505050565b5f819050919050565b610ab181610a9f565b82525050565b5f602082019050610aca5f830184610aa8565b92915050565b5f819050815f5260205f209050919050565b5f6020601f8301049050919050565b5f82821b905092915050565b5f60088302610b2c7fffffffffffffffffffffffffffffffffffffffffffffffffffffffffffffffff82610af1565b610b368683610af1565b95508019841693508086168417925050509392505050565b5f819050919050565b5f610b71610b6c610b6784610780565b610b4e565b610780565b9050919050565b5f819050919050565b610b8a83610b57565b610b9e610b9682610b78565b848454610afd565b825550505050565b5f90565b610bb2610ba6565b610bbd818484610b81565b505050565b5b81811015610be057610bd55f82610baa565b600181019050610bc3565b5050565b601f821115610c2557610bf681610ad0565b610bff84610ae2565b81016020851015610c0e578190505b610c22610c1a85610ae2565b830182610bc2565b50505b505050565b5f82821c905092915050565b5f610c455f1984600802610c2a565b1980831691505092915050565b5f610c5d8383610c36565b9150826002028217905092915050565b610c7682610654565b67ffffffffffffffff811115610c8f57610c8e6104c0565b5b610c998254610a4c565b610ca4828285610be4565b5f60209050601f831160018114610cd5575f8415610cc3578287015190505b610ccd8582610c52565b865550610d34565b601f198416610ce386610ad0565b5f5b82811015610d0a57848901518255600182019150602085019450602081019050610ce5565b86831015610d275784890151610d23601f891682610c36565b8355505b6001600288020188555050505b505050505050565b5f610d4682610654565b610d508185610931565b9350610d6081856020860161066e565b610d69816104b0565b840191505092915050565b5f6020820190508181035f830152610d8c8184610d3c565b90509291505056fea26469706673582212201a48f27b8258b4cb589f0b266e7ca2f2833ca6861b8d4dedd30e9f4a464b9a0164736f6c63430008140033",
  "immutableReferences": {},
  "source": "// SPDX-License-Identifier: MIT\r\npragma solidity ^0.8.0;\r\npragma experimental ABIEncoderV2;\r\n\r\n    contract notas {\r\n\r\n        // Direccion del profesor\r\n        address public profesor;\r\n\r\n        // Constructor\r\n        constructor () {\r\n            profesor = msg.sender;\r\n        }\r\n\r\n        mapping (bytes32 => uint) Notas;\r\n\r\n        // Mapping de los alumnos que pidan revisin de examen para una asignatura\r\n        mapping (string => string[]) revisiones;\r\n\r\n        // Eventos\r\n        event alumno_evaluado(bytes32);\r\n        event evento_revision(string);\r\n\r\n\r\n        // Function para evaluar a alumnos\r\n        function Evaluar(string memory _asignatura, string memory _idAlumno, uint _nota) public UnicamenteProfesor(msg.sender){\r\n            //Hash de la identificacion del alumno\r\n\r\n            bytes32 hash_idAlumno = keccak256(abi.encodePacked(_asignatura, _idAlumno));\r\n            // Relacion entre el hash de la identificacion del alumno y su nota\r\n\r\n            Notas[hash_idAlumno] = _nota;\r\n            // Emision del evento\r\n            emit alumno_evaluado(hash_idAlumno);\r\n        }\r\n\r\n        // Control de las unciones ejecutables por el profesor\r\n        modifier UnicamenteProfesor(address _direccion){\r\n            //Requiere que la direccion introducida por parametro sea igual al owner del contrato\r\n            require(_direccion == profesor, \"No tienes permisos para ejecutar esta funcion.\");\r\n            _;\r\n        }\r\n\r\n        // Funcin para ver las notas \r\n\r\n        function VerNotas(string memory _asignatura, string memory _idAlumno) public view returns(uint) {\r\n        bytes32 hash_idAlumno = keccak256(abi.encodePacked(_asignatura, _idAlumno));   \r\n        //Nota asociada al hash del alumno \r\n        uint nota_alumno = Notas[hash_idAlumno];\r\n        // Visualizar la nota con el return\r\n        return nota_alumno;\r\n        }\r\n        // Funcin para solicitar una revisin\r\n\r\n        function Revision(string memory _asignatura, string memory _idAlumno) public {\r\n            // Almacenamiento de la entidad de un alumno en Array\r\n            revisiones[_asignatura].push(_idAlumno);\r\n            // Emisin del evento\r\n            emit evento_revision(_idAlumno);\r\n        }\r\n\r\n        // Funcin para ver los alumnos que han solicitado revisin de examen\r\n        function VerRevisiones(string memory _asignatura) public view UnicamenteProfesor(msg.sender) returns (string [] memory){\r\n            // Devolver las entidades de los alumnos\r\n            return revisiones[_asignatura]; \r\n\r\n        }\r\n}",
  "sourcePath": "C:\\Users\\PELE DEBUTOCONUNPIBE\\Desktop\\proyect2\\contracts\\notas.sol",
  "compiler": {
    "name": "solc",
    "version": "0.8.20+commit.a1b79de6.Emscripten.clang"
  },
  "schemaVersion": "3.4.14",
  "updatedAt": "2023-07-18T15:48:54.574Z",
  "networkType": "ethereum",
  "devdoc": {
    "kind": "dev",
    "methods": {},
    "version": 1
  },
  "userdoc": {
    "kind": "user",
    "methods": {},
    "version": 1
  }
}